:020000040000FA
:100000000C9485000C94AD000C94AD000C94AD00E4
:100010000C94AD000C94AD000C94AD000C94AD00AC
:100020000C94AD000C94AD000C94AD000C94AD009C
:100030000C94AD000C94AD000C94AD000C94AD008C
:100040000C94B1060C94AD000C94AD000C94AD0072
:100050000C94AD000C94AD000C94AD000C94AD006C
:100060000C94AD000C94AD0007634236B79BD8A743
:100070001A39685618AEBAAB558C1D3CB7CC5763CD
:10008000BD6DEDFD753EF6177231BF000000803F7B
:1000900005A84CCDB2D44EB93836A9020C50B9914E
:1000A0008688083CA6AAAA2ABE000000803F00005D
:1000B0000000240027002A000000000800020100C0
:1000C0000003040700000000000000000000000022
:1000D00023002600290000000000250028002B0036
:1000E00004040404040404040202020202020303DE
:1000F00003030303010204081020408001020408E6
:100100001020010204081020E00F11241FBECFEFC1
:10011000D8E0DEBFCDBF11E0A0E0B1E0E8E7F9E252
:1001200002C005900D92AC34B107D9F721E0ACE4E0
:10013000B1E001C01D92A53DB207E1F710E0C5E8AE
:10014000D0E004C02197FE010E94AF14C438D1074B
:10015000C9F70E94FB060C94BA140C94000020E02E
:10016000DC0160FF03C001C02D932D936250E0F7C6
:100170007040D0F70895CF93DF93C091C201D09122
:10018000C301209789F08A819B81009749F02D85D2
:100190003E85B901660F771F620F731F0E94AF0083
:1001A0000C80DD81C02DEDCFDF91CF910895DC0172
:1001B00017962C91179730E0F901EC50FF4FE4911E
:1001C0001696EC93169720523F4FF9018491E82F31
:1001D000F0E0EE0FFF1FEA52FF4F859194911396C6
:1001E0009C938E931297F9012491E22FF0E0EE0F89
:1001F000FF1FE453FF4F8591949115969C938E9326
:10020000149708953FB7F8948091B4019091B50187
:10021000A091B601B091B70126B5A89B05C02F3FAC
:1002200019F00196A11DB11D3FBFBA2FA92F982F1C
:100230008827BC01CD01620F711D811D911D42E017
:10024000660F771F881F991F4A95D1F708954F921F
:100250005F926F927F929F92AF92BF92CF92DF9206
:10026000EF92FF920F931F93CF93DF9300D01F92D3
:10027000CDB7DEB7D090C8018091CB019091CC0171
:10028000A091CD01B091CE01892B8A2B8B2BD9F077
:100290000E9402010091C4011091C5012091C60184
:1002A0003091C701601B710B820B930B0091CB0146
:1002B0001091CC012091CD013091CE0160177107D2
:1002C00082079307C8F20E9402016093C4017093F1
:1002D000C5018093C6019093C701E091D301F091CD
:1002E000D401309759F04091CF015091D0016091E5
:1002F000D1017091D2018D2D0995D82EE090C201C7
:10030000F090C3014D2C512C712C612CE114F1049F
:1003100009F459C0D7011C96CC901C978091C90153
:100320009091CA018436910510F41C961C92D70155
:10033000ED91FC91A280B38019821A821B82DD208C
:1003400079F1F701369610E000E02191222319F1AE
:100350009280992001F130E050E040E02F5F3F4F64
:100360004F4F5F4FC301B2010E9470149B01AC015B
:10037000892D90E0B0E0A0E0BC01CD016F5F7F4F20
:100380008F4F9F4F0E947014A1E0B0E0AC0FBD1FD3
:10039000A00FB11F8C930F5F1F4F03301105A9F6FB
:1003A00009811A812B81F701458556856281738108
:1003B000C701F5010995D7011C96CC921C9714969C
:1003C000ED90FC90A3CF8091C0019091C1019C0160
:1003D0002F5F3F4F3093C1012093C00149970CF428
:1003E0004AC08FB7F8942091B8013091B90140917B
:1003F000BA015091BB018FBF8091BC019091BD01AA
:10040000A091BE01B091BF01281B390B4A0B5B0BB9
:1004100021F421E030E040E050E0E091C001F091B3
:10042000C10188EE93E0E89FB001E99F700DF89F4D
:10043000700D1124072E000C880B990B0E94C6101A
:100440003093CA012093C9011092C1011092C001DA
:100450002FB7F8948091B8019091B901A091BA0199
:10046000B091BB012FBF8093BC019093BD01A093BD
:10047000BE01B093BF010F900F900F90DF91CF910D
:100480001F910F91FF90EF90DF90CF90BF90AF90B2
:100490009F907F906F905F904F90089580E991E0DA
:1004A00008952F923F924F925F926F927F928F9218
:1004B0009F92AF92BF92CF92DF92EF92FF920F93F3
:1004C0001F93CF93DF93CDB7DEB729970FB6F8947C
:1004D000DEBF0FBECDBF898749835A836B837C8380
:1004E0000091C2011091C301BDE78B2E912CA12C6C
:1004F000B12C0115110509F46BC0D801ED91FC91E7
:100500000084F185E02DC80109951C01D8011296DF
:10051000ED91FC91C12CD12C7601412C512C320152
:1005200020E030E0A901009791F06081260F311D95
:10053000411D511D6181460E511C611C711C62815F
:10054000C60ED11CE11CF11C01973396ECCFA0E53F
:10055000B0E00E94B3106D837E838F839887A7E3FA
:10056000B0E0A30192010E94B3102B013C01ABE467
:10057000B0E0A70196010E94B3102D813E814F810A
:100580005885C32ED42EE52EFF2445E0429D9001D0
:10059000439D300D1124C20ED31EE11CF11C8C0CA6
:1005A0009D1CAE1CBF1C452C562C672C7724840C3C
:1005B000951CA61CB71C472F582F692F7727840E30
:1005C000951EA61EB71ED80114960D911C9191CFB1
:1005D000B985CB2ED12CF12CE12CA7019601C501B8
:1005E000B4010E947014872E982EA92EBB24298155
:1005F0003A814B815C8182169306A406B50668F0A9
:10060000A701960169817A818B819C810E94701477
:10061000A50194010E94C6102987898529960FB6E5
:10062000F894DEBF0FBECDBFDF91CF911F910F9128
:10063000FF90EF90DF90CF90BF90AF909F908F9002
:100640007F906F905F904F903F902F900895FC01A6
:10065000A281B3819C9186812681982381E09213A7
:1006600080E00895FC0186810280F381E02D908175
:100670008095892380830895FC0196810280F3810F
:10068000E02D8081892B808308950F931F93CF9352
:10069000DF9320914D012F5F322F377030934D0142
:1006A00020FF2BC020E831FD2064347009F0206267
:1006B000205FFC01EC01239600E011E064856623D5
:1006C00029F070E0C8010E9480146F5F6187322FAB
:1006D000369F030E30E0311D1124311110C01682F7
:1006E000662311F0615061873196EC17FD0731F7F1
:1006F000DF91CF911F910F91089520E0D4CF315019
:100700003683EECF4F925F927F928F929F92AF92FD
:10071000BF92CF92DF92EF92FF920F931F93CF93EE
:10072000DF932C01EB010E940201F2012785308941
:10073000621B730B6A307105B0F3F8948A819B8158
:10074000181619060CF0CDC1E881F9816BB1862E1F
:10075000689483F83BB1377F3BB9DA848F812D2DC4
:10076000281B822F2F834F85042E000C550BAA8146
:10077000BB817D85FC84EE847F5FF394E3949E814E
:100780009884B984AB841181C12C6C2D0C2D2C2D37
:100790002181112788942111280F08F42FEF8195CA
:1007A000889470FD120F1795889471FD120F17959C
:1007B000889472FD120F1795889473FD120F179588
:1007C000889474FD120F1795889475FD120F179574
:1007D000889476FD120F1795889477FD120F179560
:1007E0008894622F7111612F8D0D162F002C8BB8FC
:1007F00000C017FF3BB920816627889400C000C065
:10080000002C3BB92111290F00C0002C8BB800C06F
:1008100016FF3BB908F42FEF9195889400C000C0F3
:10082000002C3BB9F0FC620F00C0002C8BB800C05C
:1008300015FF3BB967958894F1FC620F00C000C0BA
:10084000002C3BB96795889400C0002C8BB800C081
:1008500014FF3BB9F2FC620F6795889400C000C09A
:10086000002C3BB9F3FC620F00C0002C8BB800C019
:1008700013FF3BB967958894F4FC620F00C000C079
:10088000002C3BB96795889400C0002C8BB800C041
:1008900012FF3BB9F5FC620F6795889400C000C059
:1008A000002C3BB9F6FC620F00C0002C8BB800C0D6
:1008B00011FF3BB967958894F7FC620F00C000C038
:1008C000002C3BB96795889400C0002C8BB800C001
:1008D00010FF3BB9122FF110162F9B0D00C000C066
:1008E000002C3BB900C000C0002C8BB800C017FF23
:1008F0003BB922816627889400C000C0002C3BB918
:100900002111290D00C0002C8BB800C016FF3BB987
:1009100008F42FEFE40FF51F00C000C0002C3BB916
:10092000E0FC620F00C0002C8BB800C015FF3BB983
:1009300067958894E1FC620F00C000C0002C3BB9B1
:100940006795889400C0002C8BB800C014FF3BB999
:10095000E2FC620F6795889400C000C0002C3BB990
:10096000E3FC620F00C0002C8BB800C013FF3BB942
:1009700067958894E4FC620F00C000C0002C3BB96E
:100980006795889400C0002C8BB800C012FF3BB95B
:10099000E5FC620F6795889400C000C0002C3BB94D
:1009A000E6FC620F00C0002C8BB800C011FF3BB901
:1009B00067958894E7FC620F00C000C0002C3BB92B
:1009C0006795889400C0002C8BB800C010FF3BB91D
:1009D000122FE110162F919400C000C0002C3BB9DB
:1009E0009A0C00C000C08BB800C017FF3BB9218132
:1009F0006627889400C000C0002C3BB92111280F45
:100A000000C0002C8BB800C016FF3BB908F42FEFD4
:100A10008195889400C000C0002C3BB970FD620F26
:100A200000C0002C8BB800C015FF3BB967958894B7
:100A300071FD620F00C000C0002C3BB9679588941F
:100A400000C0002C8BB800C014FF3BB972FD620FD0
:100A50006795889400C000C0002C3BB973FD620FFD
:100A600000C0002C8BB800C013FF3BB96795889479
:100A700074FD620F00C000C0002C3BB967958894DC
:100A800000C0002C8BB800C012FF3BB975FD620F8F
:100A90006795889400C000C0002C3BB976FD620FBA
:100AA00000C0002C8BB800C011FF3BB9679588943B
:100AB00077FD620F00C000C0002C3BB96795889499
:100AC00000C0002C8BB800C010FF3BB9122F711171
:100AD000162F8D0D00C000C0002C3BB9119709F0F6
:100AE00086CE4A815B8120EE31E0DA010E949414C7
:100AF000DC01CB01F4E0B695A79597958795FA951B
:100B0000D1F730E020E0B901EAE94E9F040E611D03
:100B10005E9F600D711D1124650F711D860F971F5B
:100B2000A11DB11D893E43E09407A105B10508F45C
:100B300034C0885E9340A109B10942E0B695A795FB
:100B4000979587954A95D1F747E0849F080E211D18
:100B5000949F200D311D1124290F311D60914C01EE
:100B600070E0860F971F820F931F4091B80150913C
:100B7000B9016091BA017091BB01292F3327420F4F
:100B8000531F611D711D4093B8015093B9016093CB
:100B9000BA017093BB0180934C0178940E940201CA
:100BA000F201708B6787DF91CF911F910F91FF90BA
:100BB000EF90DF90CF90BF90AF909F908F907F90FD
:100BC0005F904F90089581E090E00895539A0895C2
:100BD0006F927F928F92CF92DF92EF92FF920F935C
:100BE0001F93CF93DF93CDB7DEB762970FB6F8941C
:100BF000DEBF0FBECDBF6C017A013801822EDC0151
:100C00001C962C91CA0157FF04C088279927841B82
:100C1000950B7A8369839C838B839E838D836D86FA
:100C20007E868F86213049F5CE0101960E944503CC
:100C300083E0888B1A8A198AF7FE02C08DEF888BB1
:100C4000D601ED91FC910684F785E02DBE016F5F22
:100C50007F4FC601099562960FB6F894DEBF0FBEAE
:100C6000CDBFDF91CF911F910F91FF90EF90DF905B
:100C7000CF908F907F906F9008951C861B861A8668
:100C8000198618861F82D4CFEF92FF920F931F937D
:100C9000CF93DF93CDB7DEB762970FB6F894DEBF80
:100CA0000FBECDBF7C01DC011C968C917A836983D9
:100CB0005C834B835E834D830D871E872F87813036
:100CC000F9F4CE0101960E944503188A1A8A198AFE
:100CD000D701ED91FC910684F785E02DBE016F5F91
:100CE0007F4FC701099562960FB6F894DEBF0FBE1D
:100CF000CDBFDF91CF911F910F91FF90EF9008959D
:100D00001C861B861A86198618861F82DECF90E005
:100D100080E00895FC018585968508950F931F93C3
:100D2000CF93DF9300D01F92CDB7DEB7AB0119820E
:100D30001A821B82DC01ED91FC910190F081E02D83
:100D400000E010E020E0BE016F5F7F4F09950F903B
:100D50000F900F90DF91CF911F910F9108950E94F6
:100D6000B5141F920F920FB60F9211242F933F9339
:100D70008F939F93AF93BF938091B8019091B901E6
:100D8000A091BA01B091BB013091B30123E0230FD0
:100D90002D3758F50196A11DB11D2093B301809305
:100DA000B8019093B901A093BA01B093BB018091AF
:100DB000B4019091B501A091B601B091B70101962F
:100DC000A11DB11D8093B4019093B501A093B6010C
:100DD000B093B701BF91AF919F918F913F912F91A8
:100DE0000F900FBE0F901F90189526E8230F0296C4
:100DF000A11DB11DD2CFCF93DF93CDB7DEB7CF54B6
:100E0000D1090FB6F894DEBF0FBECDBF789484B57C
:100E1000826084BD84B5816084BD85B5826085BDF6
:100E200085B5816085BD80916E00816080936E0084
:100E30001092810080918100826080938100809176
:100E40008100816080938100809180008160809327
:100E500080008091B10084608093B1008091B000E7
:100E600081608093B00080917A00846080937A00E2
:100E700080917A00826080937A0080917A0081600C
:100E800080937A0080917A00806880937A00109233
:100E9000C100E9EFF0E02491E5EEF0E084918823D1
:100EA000C9F090E0880F991FFC01E255FF4FA59112
:100EB000B491FC01EA52FF4F459154913FB7F89429
:100EC0009C91822F809598239C93DA019C91892391
:100ED0008C933FBF80916101811145C010925301F5
:100EE000109252018FEF80935601809357018093A7
:100EF00058018093590180935A0180935B0181E0EE
:100F000080935C0110925E0110925D011092550178
:100F1000109254018091C2019091C301892B31F448
:100F200080E591E09093C3018093C201E0914E016E
:100F3000F0914F01309721F080E591E09583848313
:100F400080E591E090934F0180934E0110926001F3
:100F500010925F018CE391E09093510180935001D6
:100F600081E080936101539A82E891E0909353016C
:100F7000809352018FE090E090935E0180935D0139
:100F80008091CB019091CC01A091CD01B091CE0187
:100F9000843CE9E09E07A105B10520F484EC99E0CA
:100FA000A0E0B0E08093CB019093CC01A093CD0161
:100FB000B093CE0181E592E09093D4018093D30168
:100FC00084E690E0A0E0B0E08093CF019093D00160
:100FD000A093D101B093D2010E94BB000E942701CF
:100FE000A4E6CA2ED12CE12CF12CE1E52E2EE2E074
:100FF0003E2EF8EC4F2E512C2FB7F8948091B8016B
:101000009091B901A091BA01B091BB012FBF80931B
:10101000AF019093B001A093B101B093B201EDEB99
:10102000F0E09491E9EFF0E08491E5EEF0E02491B6
:10103000222309F4AFC0992359F0933009F493C0E7
:1010400008F086C0913009F494C0923009F495C03C
:10105000E22FF0E0EE0FFF1FE453FF4FA591B49194
:101060009C91892341E090E009F440E0242F392F3E
:10107000122F11708090AF019090B001A090B1013B
:10108000B090B20180910101181741F0809269017E
:1010900090926A01A0926B01B0926C0180916901FB
:1010A00090916A01A0916B01B0916C01B501A4010E
:1010B000481B590B6A0B7B0BDB01CA01C397A105C7
:1010C000B10510F1809100011817F1F08091020133
:1010D0009091030110930001232BB1F4019668E075
:1010E00070E00E9480149093030180930201843089
:1010F000910509F466C00CF050C08130910509F4E7
:1011000056C0029709F456C0109301018091020164
:10111000909103018130910509F46AC10CF06AC015
:10112000892B09F40CC18091020190910301853053
:10113000910509F465C40CF04AC3049709F4DAC3B5
:1011400080E090E0892B09F457CF0E9400004DCF3A
:101150009730B1F09830D1F0943009F079CF909178
:1011600080009F7D03C0909180009F7790938000C6
:101170006FCF94B59F7794BD6BCF94B59F7DFBCF18
:101180009091B0009F779093B00062CF9091B000A3
:101190009F7DF9CF30E020E06BCF8630910519F1CB
:1011A000CCF0079709F0B0CF10927D01ADCF10922F
:1011B0006D01AACF1092700110926F0110926E0112
:1011C000A3CF1092730110927401109275011092C6
:1011D00076019ACF109278011092770110927901DE
:1011E0000E94BB0091CF10927A0110927C01109264
:1011F0007B018ACF8230910509F45FC1039709F022
:1012000092CF80917E0190917F01A0918001B09159
:101210008101881A990AAA0ABB0AA3E08A169104D6
:10122000A104B10408F48CCF3092D4012092D301F0
:10123000C092CF01D092D001E092D101F092D201C0
:101240002FB7F8946091B8017091B9018091BA01FB
:101250009091BB012FBF0E94461220E030E44CE980
:1012600055E40E9464112BED3FE049E450E40E94F4
:1012700076130E94E3130E94DE1122EB3AE54CEB59
:101280005EE30E94F71020E030E048ED52E40E9457
:1012900076130E9410129B01AC01A8E3B0E00E94FB
:1012A000B3102FEF30E040E050E00E949410CA01EC
:1012B000B901685F7F4F8F4F9F4F0E9448120E9475
:1012C00017126093C80180917101909172019C0185
:1012D0002F5F3F4F30937201209371016EE170E0F8
:1012E0000E948014762EAE014F5F5F4FFA01A0E09E
:1012F00005E5A02EB0E08BEA682E9AEA992E6FE001
:10130000B62E772D7A0F972F990F990F990F192FC6
:101310000A2D109F010E10E0111D1124812F672F3F
:101320006074172F107277FD32C261111DC2111146
:10133000C1C1982F9095782F892F90E0BFC18091DF
:101340007E0190917F01A0918001B0918101881A66
:10135000990AAA0ABB0A54E685169104A104B104AD
:1013600008F4EECE3092D4012092D301C092CF0186
:10137000D092D001E092D101F092D20102E811E0C6
:10138000580199249A94D5019C9211961C92119718
:1013900012961C920E942701B3E0AB0EB11CE0EA4A
:1013A000AE16E1E0BE0679F7BB24BA94D8015E968A
:1013B0001C925E975F96BC925F9790961C920E94DB
:1013C00027010D5F1F4FB1E001391B0779F78091AD
:1013D000AF019091B001A091B101B091B2018093A1
:1013E0007E0190937F01A0938001B09381019BCEF9
:1013F00080917E0190917F01A0918001B091810147
:10140000881A990AAA0ABB0AE8EE8E16E3E09E063D
:10141000A104B10408F494CE3092D4012092D301F7
:10142000C092CF01D092D001E092D101F092D201CE
:1014300080916D01811110C0E2E8F1E0108211820B
:101440001282339601E0EF3AF007C1F70E942701BC
:1014500081E080936D01BBCF813009F071CEE2E86D
:10146000F1E08FEF808311821282339621E0E03A1F
:10147000F207C1F71092A0018093A1011092A2017E
:101480001092A3018093A4011092A5011092A601CD
:101490008093A7011092A8011092A9018093AA013C
:1014A0001092AB011092AC018093AD011092AE018D
:1014B0000E94270110926D018ACF80917E01909148
:1014C0007F01A0918001B0918101881A990AAA0A2E
:1014D000BB0A45E084169104A104B10408F430CE9F
:1014E00080917001811145C03092D4012092D301C6
:1014F00068EC70E080E090E06093CF017093D001E1
:101500008093D1019093D201E2E8F1E0DF018FEF07
:101510008C9311961C92119712961C921297139607
:1015200071E0A33AB707A1F78FEF168E878F10A24D
:10153000339691E0E439F907C1F70E9427018091C1
:10154000AF019091B001A091B101B091B20180932F
:101550007E0190937F01A0938001B093810181E08F
:101560008093700180E991E090936F0180936E0108
:10157000DACD813009F049C060916E0170916F0140
:10158000072E000C880B990B0E9448122DEC3CECA6
:101590004CEC5DE30E9476130E9417129B01AC0194
:1015A000A5E0B0E00E94B3103092D4012092D301A4
:1015B0006093CF017093D0018093D1019093D201B9
:1015C0000E9427018091AF019091B001A091B101DB
:1015D000B091B20180937E0190937F01A09380012E
:1015E000B093810180916E0190916F01019790936A
:1015F0006F0180936E0197FF96CD82E0809370011A
:1016000010926F0110926E018ECD823009F098CD4C
:1016100060916E0170916F01072E000C880B990B81
:101620000E9448122DEC3CEC4CEC5DE30E947613DA
:101630000E9417129B01AC01A5E0B0E00E94B3101C
:101640003092D4012092D3016093CF017093D001E6
:101650008093D1019093D2010E9427018091AF0124
:101660009091B001A091B101B091B20180937E013F
:1016700090937F01A0938001B093810160916E01EE
:1016800070916F016F5F7F4F70936F0160936E0178
:10169000072E000C880B990B0E94481220E030E0C6
:1016A00048EC53E40E94FB1218160CF03CCD10924B
:1016B000700158CF75E5780F90E08BEA1B2F0B2D4A
:1016C000002329F0009F112D112401111F5F812E8D
:1016D0008094682F082D609F060E60E0611D862FA4
:1016E000709F070E70E0711D692F609F060E60E00D
:1016F000611D962F1124810F8083710F7183910FCB
:101700009283AB5F3396AB3409F0FBCD8EE1E8E01A
:10171000F1E0DE019E9601900D928A95E1F7BE01FF
:10172000625D7F4FDB015E969E918E91FC01EE0F14
:10173000FF1FE80FF91FCF018E579E4FFA016190EE
:1017400071908190AF01FC016082718282826A1780
:101750007B0751F7223E3D4121F410927201109215
:1017600071010E94270133CE11110CC0792F092D70
:10177000709F070E70E0711D1124962D971B7AEA59
:10178000780FDACD782F7095982F80E097CF611180
:1017900012C011110CC0692F792D679F060E60E0F1
:1017A000611D1124962F762D761B9B5AEECF982F14
:1017B000909570E083CF111106C075E5780F962DD6
:1017C000981B872FF6CF7AEA780F9A2DF9CF8630BB
:1017D000910509F4E8C1E2E8F1E0079709F0B0CC1F
:1017E000108211821282339691E0EF3AF907C1F725
:1017F0008091AF019091B001A091B101B091B2017F
:1018000040917E0150917F01609180017091810132
:10181000841B950BA60BB70B8C3B9240A105B10521
:1018200008F48ECC3092D4012092D301C092CF0123
:10183000D092D001E092D101F092D20180917D014D
:1018400081116CC32AED2093940195EA9093950140
:1018500080E280939601209382019093830180938C
:10186000840120938E0190938F01809390012093A7
:101870008B0190938C0180938D0120939101909323
:101880009201809393011092A0018BE88093A101B3
:101890008093A2011092A3018093A4018093A501DB
:1018A0001092A6018093A7018093A801109297013E
:1018B0001092980110929901109285011092860160
:1018C0001092870110929A0110929B0110929C0134
:1018D000109288011092890110928A0110929D0144
:1018E00010929E0110929F010E94270181E0809337
:1018F0007D0175C08091AF019091B001A091B101BF
:10190000B091B20140917E0150917F0160918001C0
:1019100070918101841B950BA60BB70B409173014D
:10192000509174016091750170917601841795074B
:10193000A607B70708F404CC3092D4012092D30153
:10194000C092CF01D092D001E092D101F092D201A9
:1019500002E811E00E943C104B015C010E943C1027
:1019600060966CAF7DAF8EAF9FAF60970E943C10CA
:101970002FEF30E040E050E00E949410D8016C93CB
:1019800060966CAD7DAD8EAD9FAD60972FEF30E072
:1019900040E050E00E949410F8016183C501B40159
:1019A0002FEF30E040E050E00E949410D8011296F2
:1019B0006C930D5F1F4FB1E00F3A1B0759F60E9461
:1019C0003C100E9427014CE251E060E070E040933F
:1019D0007301509374016093750170937601809147
:1019E000AF019091B001A091B101B091B20180938B
:1019F0007E0190937F01A0938001B0938101A0CBE1
:101A0000E091790188EC90E0E23011F486E990E011
:101A10004091AF015091B0016091B1017091B2015C
:101A200000917E0110917F01209180013091810110
:101A3000401B510B620B730B092E000CAA0BBB0B46
:101A4000481759076A077B0708F47ACBE1113DC0B4
:101A50003092D4012092D301C092CF01D092D00114
:101A6000E092D101F092D2018091770190917801BA
:101A7000FC01EE0FFF1FE80FF91FEE57FE4F8FEF2F
:101A80008083118212820E9427018091AF01909180
:101A9000B001A091B101B091B20180937E01909309
:101AA0007F01A0938001B093810180917701909193
:101AB0007801019690937801809377010A970CF44E
:101AC0003FCB81E0809379013BCBE130B9F5809148
:101AD000770190917801FC01EE0FFF1FE80FF91FCD
:101AE000EE57FE4F10828FEF818312820E942701F2
:101AF0008091AF019091B001A091B101B091B2017C
:101B000080937E0190937F01A0938001B093810127
:101B1000809177019091780101969093780180935C
:101B200077010F970CF40CCB82E0809379016EE083
:101B300070E0709378016093770102CBE23009F096
:101B4000FFCA8091770190917801FC01EE0FFF1F91
:101B5000E80FF91FEE57FE4F1082118212820E9489
:101B600027018091AF019091B001A091B101B09196
:101B7000B20180937E0190937F01A0938001B09386
:101B8000810180917701909178010197909378017C
:101B90008093770197FFD4CA10927901109278014F
:101BA00010927701CDCA4091AF015091B001609180
:101BB000B1017091B20180917E0190917F01A0915D
:101BC0008001B0918101481B590B6A0B7B0B8091FE
:101BD0007B0190917C01092E000CAA0BBB0B4817CE
:101BE00059076A077B0708F4ABCA80917A01811113
:101BF00037C03092D4012092D301C092CF01D0924D
:101C0000D001E092D101F092D201E2E8F1E010823D
:101C100011821282339671E0EF3AF707C1F7109202
:101C2000AC0184E68093AD011092AE010E942701C1
:101C300050927C0140927B018091AF019091B00164
:101C4000A091B101B091B20180937E0190937F0188
:101C5000A0938001B093810181E080937A0170CAE2
:101C60008130F9F41092A90180E88093AA011092C2
:101C7000AB010E94270150927C0140927B01809130
:101C8000AF019091B001A091B101B091B2018093E8
:101C90007E0190937F01A0938001B093810182E047
:101CA000DCCF8230F9F41092A6018FEF8093A70168
:101CB0001092A8010E94270150927C0140927B0162
:101CC0008091AF019091B001A091B101B091B201AA
:101CD00080937E0190937F01A0938001B093810156
:101CE00083E0BBCF833001F582E28093A3019BE8C0
:101CF0009093A4018093A5010E94270150927C013A
:101D000040927B018091AF019091B001A091B1010F
:101D1000B091B20180937E0190937F01A0938001E6
:101D2000B093810184E099CF843001F582E3809300
:101D3000A0019DEC9093A1018093A2010E94270134
:101D400050927C0140927B018091AF019091B00153
:101D5000A091B101B091B20180937E0190937F0177
:101D6000A0938001B093810185E077CF853009F59C
:101D70008BE880939A0110929B0110929C010E9423
:101D8000270180E991E090937C0180937B01809111
:101D9000AF019091B001A091B101B091B2018093D7
:101DA0007E0190937F01A0938001B093810186E032
:101DB00054CF863009F58FEF809388011092890106
:101DC00010928A010E94270180E991E090937C01A2
:101DD00080937B018091AF019091B001A091B101FE
:101DE000B091B20180937E0190937F01A093800116
:101DF000B093810187E031CF873009F58FEF809371
:101E00008E0110928F01109290010E94270180E9AB
:101E100091E090937C0180937B018091AF01909140
:101E2000B001A091B101B091B20180937E01909375
:101E30007F01A0938001B093810188E00ECF8830AC
:101E4000A1F59DEC909382018CE5809383018093B2
:101E500084019093850180938601809387019093FC
:101E60008B0180938C0180938D01909391018093DD
:101E70009201809393010E94270180E991E0909361
:101E80007C0180937B018091AF019091B001A09182
:101E9000B101B091B20180937E0190937F01A09334
:101EA0008001B093810189E0D8CE893009F048C91A
:101EB0002FEF2093940199E69093950184EB809302
:101EC0009601209397019093980180939901209314
:101ED0009A0190939B0180939C0120939D01909384
:101EE0009E0180939F010E94270188E592E09093D4
:101EF0007C0180937B018091AF019091B001A09112
:101F0000B101B091B20180937E0190937F01A093C3
:101F10008001B093810110927A0112C981E080930F
:101F20007D011092940110929501109296011092E9
:101F30008201109283011092840110928E011092FE
:101F40008F011092900110928B0110928C011092CF
:101F50008D0110929101109292011092930180E8EC
:101F600080939701109298011092990180938501B6
:101F7000109286011092870180939A0110929B0122
:101F800010929C01809388011092890110928A011D
:101F900080939D0110929E0110929F011092A901C1
:101FA00084E68093AA011092AB011092AC01809359
:101FB000AD011092AE010E94270110927D010FCD5C
:101FC000E8ECF1E08FEF8083128211821486138691
:101FD0008FEF9FEFDC0187839087A187B2870895F9
:101FE0008F929F92AF92BF92CF92DF92EF92FF9229
:101FF000CF93DF93EC01688179818A819B816115A0
:1020000071058105910521F464E279ED8BE597E096
:102010002DE133EF41E050E00E94941049015A0154
:102020009B01AC01A7EAB1E40E94B3106B017C01F3
:10203000ACEEB4EFA50194010E94C110C60ED71EEC
:10204000E81EF91EF7FE06C081E0C81AD108E108B3
:1020500080E8F80AC882D982EA82FB82C701B60109
:102060009F77DF91CF91FF90EF90DF90CF90BF905F
:10207000AF909F908F9008958F929F92AF92BF9252
:10208000CF92DF92EF92FF9260910401709105016F
:1020900080910601909107016115710581059105F7
:1020A00021F464E279ED8BE597E02DE133EF41E037
:1020B00050E00E94941049015A019B01AC01A7EA2B
:1020C000B1E40E94B3106B017C01ACEEB4EFA5014A
:1020D00094010E94C110C60ED71EE81EF91EF7FE1D
:1020E00006C081E0C81AD108E10880E8F80AC09269
:1020F0000401D0920501E0920601F0920701C701A8
:10210000B6019F77FF90EF90DF90CF90BF90AF9098
:102110009F908F90089560930401709305018093C0
:102120000601909307010895052E97FB1EF4009475
:102130000E94AB1057FD07D00E94C61007FC03D0C9
:102140004EF40C94AB1050954095309521953F4F2F
:102150004F4F5F4F089590958095709561957F4F93
:102160008F4F9F4F08950E94E810A59F900DB49F38
:10217000900DA49F800D911D11240895B7FF0C941C
:10218000B3100E94B310821B930B0895A1E21A2E84
:10219000AA1BBB1BFD010DC0AA1FBB1FEE1FFF1F0B
:1021A000A217B307E407F50720F0A21BB30BE40B5B
:1021B000F50B661F771F881F991F1A9469F76095A2
:1021C0007095809590959B01AC01BD01CF0108955C
:1021D000A29FB001B39FC001A39F700D811D112468
:1021E000911DB29F700D811D1124911D08955058AD
:1021F000BB27AA270E940F110C94C1120E94B31290
:1022000038F00E94BA1220F039F49F3F19F426F4F6
:102210000C9489120EF4E095E7FB0C948312E92FDD
:102220000E94D21258F3BA17620773078407950702
:1022300020F079F4A6F50C94F4120EF4E0950B2E30
:10224000BA2FA02D0B01B90190010C01CA01A00108
:102250001124FF27591B99F0593F50F4503E68F163
:102260001A16F040A22F232F342F4427585FF3CFA4
:10227000469537952795A795F0405395C9F77EF475
:102280001F16BA0B620B730B840BBAF09150A1F0BE
:10229000FF0FBB1F661F771F881FC2F70EC0BA0F44
:1022A000621F731F841F48F4879577956795B795CC
:1022B000F7959E3F08F0B0CF9395880F08F09927C7
:1022C000EE0F9795879508950E9478110C94C1128E
:1022D0000E94BA1258F00E94B31240F029F45F3FF6
:1022E00029F00C94831251110C94F5120C9489125C
:1022F0000E94D21268F39923B1F3552391F3951BF1
:10230000550BBB27AA2762177307840738F09F5F16
:102310005F4F220F331F441FAA1FA9F335D00E2E83
:102320003AF0E0E832D091505040E695001CCAF7F0
:102330002BD0FE2F29D0660F771F881FBB1F2617B3
:1023400037074807AB07B0E809F0BB0B802DBF018A
:10235000FF2793585F4F3AF09E3F510578F00C9459
:1023600083120C94F5125F3FE4F3983ED4F3869504
:1023700077956795B795F7959F5FC9F7880F911D7A
:102380009695879597F90895E1E0660F771F881F66
:10239000BB1F621773078407BA0720F0621B730B19
:1023A000840BBA0BEE1F88F7E095089529F416F018
:1023B0000C9483120C94F4120C9489120E94DA1279
:1023C000A8F39638A0F707F80F92E8942BE33AEABF
:1023D00048EB5FE70E948C130F920F920F924DB75C
:1023E0005EB70F920E944213E8E6F0E00E948C1262
:1023F0004F915F91EF91FF91E595EE1FFF1F49F01F
:10240000FE57E0684427EE0F441FFA95E1F7419527
:10241000550B0E940C130F9007FE0C9400130895A7
:102420000E9417126894B1110C94F51208950E943D
:10243000DA1288F09F5798F0B92F9927B751B0F06A
:10244000E1F0660F771F881F991F1AF0BA95C9F738
:1024500014C0B13091F00E94F412B1E008950C94D0
:10246000F412672F782F8827B85F39F0B93FCCF383
:10247000869577956795B395D9F73EF490958095B5
:10248000709561957F4F8F4F9F4F0895E89409C0D5
:1024900097FB3EF490958095709561957F4F8F4F97
:1024A0009F4F9923A9F0F92F96E9BB279395F695AD
:1024B000879577956795B795F111F8CFFAF4BB0F2B
:1024C00011F460FF1BC06F5F7F4F8F4F9F4F16C08F
:1024D000882311F096E911C0772321F09EE8872F19
:1024E000762F05C0662371F096E8862F70E060E0D5
:1024F0002AF09A95660F771F881FDAF7880F96954E
:10250000879597F9089597F99F6780E870E060E0F4
:1025100008959FEF80EC0895DF93CF931F930F935F
:10252000FF92EF92DF927B018C01689406C0DA2E55
:10253000EF010E948913FE01E894A5912591359140
:1025400045915591A6F3EF010E940F11FE019701ED
:10255000A801DA9469F7DF90EF90FF900F911F9137
:10256000CF91DF91089500240A94161617061806D5
:102570000906089500240A94121613061406050687
:102580000895092E0394000C11F4882352F0BB0F18
:1025900040F4BF2B11F460FF04C06F5F7F4F8F4F7B
:1025A0009F4F089557FD9058440F551F59F05F3FB6
:1025B00071F04795880F97FB991F61F09F3F79F065
:1025C00087950895121613061406551FF2CF4695E7
:1025D000F1DF08C0161617061806991FF1CF869569
:1025E0007105610508940895E894BB27662777274D
:1025F000CB0197F908950E94EB1308F48FEF08952B
:102600009B01AC0160E070E080E89FE30C946411F2
:102610000C9483120C940F140E94DA12D8F39923AD
:10262000C9F3940F511DA3F39150504094F059F009
:10263000882332F0660F771F881F91505040C1F7F2
:102640009E3F51052CF7880F911D9695879597F918
:1026500008955F3FACF0983E9CF0BB278695779538
:102660006795B79508F4B1609395C1F7BB0F58F71C
:1026700011F460FFE8CF6F5F7F4F8F4F9F4FE3CF25
:102680000C94F512FA01DC01AA0FBB1F9B01AC01EF
:10269000BF5728F4222733274427507820C0B7514A
:1026A00090F4AB2F0024469537952795011CA395F0
:1026B000D2F3002071F0220F331F441FB395DAF3D9
:1026C0000ED00C94F71061307105A0E88A07B94666
:1026D00030F49B01AC0166277727882790783096E5
:1026E00021F0208331834283538308950E9489130C
:1026F0000C94C1120E94B31238F00E94BA1220F05A
:10270000952311F00C9483120C94891211240C94CB
:10271000F5120E94D21270F3959FC1F3950F50E00D
:10272000551F629FF001729FBB27F00DB11D639F83
:10273000AA27F00DB11DAA1F649F6627B00DA11D29
:10274000661F829F2227B00DA11D621F739FB00DCF
:10275000A11D621F839FA00D611D221F749F33273F
:10276000A00D611D231F849F600D211D822F762FD8
:102770006A2F11249F5750409AF0F1F088234AF0B5
:10278000EE0FFF1FBB1F661F771F881F9150504021
:10279000A9F79E3F510580F00C9483120C94F5121A
:1027A0005F3FE4F3983ED4F3869577956795B795A8
:1027B000F795E7959F5FC1F7FE2B880F911D9695C2
:1027C000879597F908959F930E941F140F9007FC17
:1027D000EE5F0C944814990F0008550FAA0BE0E81F
:1027E000FEEF16161706E807F907C0F012161306D3
:1027F000E407F50798F0621B730B840B950B39F413
:102800000A2661F0232B242B252B21F408950A2678
:1028100009F4A140A6958FEF811D811D08959F3F6A
:1028200031F0915020F4879577956795B795880F8B
:10283000911D9695879597F908950C9489120E9499
:10284000DA12D8F3E894E0E0BB279F57F0F02AEDC6
:102850003FE049EC06C0EE0FBB0F661F771F881FD5
:1028600028F0B23A62077307840728F0B25A620B65
:10287000730B840BE3959A9572F7803830F49A9530
:10288000BB0F661F771F881FD2F790480C94111456
:10289000EF93E0FF07C0A2EA2AED3FE049EC5FEBCF
:1028A0000E940F110E94C1120F90039401FC9058D6
:1028B000E0E9F0E00C945C149F938F937F936F9307
:1028C000FF93EF939B01AC010E947613EF91FF9170
:1028D0000E948C122F913F914F915F910C9476132F
:1028E000DB018F939F930E94B310BF91AF91A29F82
:1028F000800D911DA39F900DB29F900D11240895FE
:1029000097FB072E16F4009407D077FD09D00E949C
:102910009B1407FC05D03EF4909581959F4F089538
:10292000709561957F4F08950E94E810B7FF089554
:10293000821B930B0895AA1BBB1B51E107C0AA1F62
:10294000BB1FA617B70710F0A61BB70B881F991F50
:102950005A95A9F780959095BC01CD010895EE0F89
:10296000FF1F0590F491E02D099481E090E0F89428
:102970000C94BA14F894FFCF0101FFFF010000008E
:102980000E000D000C000B000A00080007000900F3
:102990000100020006000000030004000500000022
:1029A0000000AF06AF06AF068E068A06E30587066F
:1029B000000000004406E805E6058E068A06E305E9
:0429C0004E0282033E
:107E0000112484B714BE81FFF0D085E080938100F7
:107E100082E08093C00088E18093C10086E0809377
:107E2000C20080E18093C4008EE0C9D0259A86E02C
:107E300020E33CEF91E0309385002093840096BBD3
:107E4000B09BFECF1D9AA8958150A9F7CC24DD24C4
:107E500088248394B5E0AB2EA1E19A2EF3E0BF2EE7
:107E6000A2D0813461F49FD0082FAFD0023811F036
:107E7000013811F484E001C083E08DD089C08234E0
:107E800011F484E103C0853419F485E0A6D080C0E4
:107E9000853579F488D0E82EFF2485D0082F10E0AE
:107EA000102F00270E291F29000F111F8ED06801E7
:107EB0006FC0863521F484E090D080E0DECF843638
:107EC00009F040C070D06FD0082F6DD080E0C81688
:107ED00080E7D80618F4F601B7BEE895C0E0D1E017
:107EE00062D089930C17E1F7F0E0CF16F0E7DF06D8
:107EF00018F0F601B7BEE89568D007B600FCFDCFD4
:107F0000A601A0E0B1E02C9130E011968C91119780
:107F100090E0982F8827822B932B1296FA010C0160
:107F200087BEE89511244E5F5F4FF1E0A038BF0790
:107F300051F7F601A7BEE89507B600FCFDCF97BE46
:107F4000E89526C08437B1F42ED02DD0F82E2BD052
:107F50003CD0F601EF2C8F010F5F1F4F84911BD097
:107F6000EA94F801C1F70894C11CD11CFA94CF0C13
:107F7000D11C0EC0853739F428D08EE10CD085E9AC
:107F80000AD08FE07ACF813511F488E018D01DD067
:107F900080E101D065CF982F8091C00085FFFCCF94
:107FA0009093C60008958091C00087FFFCCF809118
:107FB000C00084FD01C0A8958091C6000895E0E648
:107FC000F0E098E1908380830895EDDF803219F02E
:107FD00088E0F5DFFFCF84E1DECF1F93182FE3DFCA
:107FE0001150E9F7F2DF1F91089580E0E8DFEE27F6
:047FF000FF270994CA
:027FFE00040479
:00000001FF
